:100000000C9481010C94CD1B0C949E010C949E01C8
:100010000C949E010C949E010C949E010C949E01E4
:100020000C949E010C949E010C94F3200C94C72117
:100030000C944C1A0C949E010C949E010C949E01FD
:100040000C949E010C949E010C949E010C949E01B4
:100050000C949E010C94EF1A0C949E010C949E013A
:100060000C949E010C949E010C949E010C949E0194
:100070000C949E010C949E010C949E010C949E0184
:100080000C949E010C949E010C949E010C949E0174
:100090000C949E010C949E010C949E010C949E0164
:1000A0000C949E010C949E010C949E012E001E0047
:1000B0001F002000210022002B0014001A0008005D
:1000C00015001700290004001600070009000A00A7
:1000D000E1001D001B00060019000500000064007F
:1000E000350050004F00E0000000E200E000E300B7
:1000F0002A003900230024002500260027002D00B7
:100100001C0018000C001200130031000B000D0041
:100110000E000F003341340011001000360037008C
:100120003800E5004E41520051002F003000000021
:100130004B412C002841E441E5000000007C000018
:10014000AC00AE00AB0000000100A900B600CD007D
:10015000B700D9000100AA00CF00CE00D000DA001D
:1001600000003A003B003C003D00380200003E0029
:100170003F004000410001000000B600E100D20055
:10018000D10001005700E300250026000000007C9C
:10019000BD002E002F0226022D020100BE005000DD
:1001A000510052004F00010036022D003702370087
:1001B00025020100480042004300440045000000C1
:1001C0004D00E50046004E004B00000014034400C3
:1001D00061006300740079006C002000430043005C
:1001E00000000E036D006A006F0068006E0073006F
:1001F00000000403090409023B00020100A0FA09FF
:100200000400000103010100092111010001224441
:100210000007058103080001090401000103000033
:1002200000092111010001227B0007058203200043
:100230000112010002000000084E440714000101F1
:1002400002000105010902A10185020901A10005C1
:100250000919012908150025019508750181020574
:1002600001093009311581257F950275088106093C
:10027000381581257F950175088106050C0A38021D
:100280001581257F950175088106C0C0050109808B
:10029000A101850319012AB700150126B7009501B0
:1002A00075108100C0050C0901A101850419012AFE
:1002B000A002150126A002950175108100C005015C
:1002C0000906A101050719E029E715002501950890
:1002D000750181029501750881010507190029FF43
:1002E000150026FF009506750881000508190129EB
:1002F000051500250195057501910295017503917C
:1003000001C011241FBECFEFDAE0DEBFCDBF11E088
:10031000A0E0B1E0ECE1F9E402C005900D92AE3A44
:10032000B107D9F722E0AEEAB1E001C01D92AA3CC4
:10033000B207E1F70E9422130C944D240C940000A4
:100340008230B8F46C30A8F4463098F450E096E06F
:10035000699F400D511D1124FA0198E4899FE00D19
:10036000F11D1124EE0FFF1FE455FF4F859194916D
:10037000089581E090E008950E94A001089581E031
:1003800008950E94BF01089581E008950E94BF0171
:1003900008950E94C601089508950E94CC01089511
:1003A000A6E0B0E0E6EDF1E00C94A92349835A837E
:1003B0009E833091B50189819A8131111AC03E81A5
:1003C000332399F0222389F00E946307182F682FA6
:1003D00089819A810E943F0769817A81812F0E94D9
:1003E0003D0E2696E3E00C94C5230E945107182F7A
:1003F000F3CF0E94630769817A81F1CFFC01262F38
:100400004081518162817381848195810E94D001F4
:100410000895CF93DF93EC0161E00E94FE01BE01DD
:100420000E94C101DF91CF910895CF93DF93EC013A
:1004300060E00E94FE01BE010E94CD01DF91CF91DC
:10044000089581E008950E9421020895CF93C82F56
:100450000E9414068C2F0E9423022FEF84E39CE05D
:10046000215080409040E1F700C00000CF910895F6
:1004700081E00E9426020E94131B089580E00E94E2
:1004800026020E94241B08950F931F93CF93DF939E
:100490008C0161E00E94FE01EC01B8010E94C901DB
:1004A000811106C080E0DF91CF911F910F910895D7
:1004B000B801CE010E94AF188823A1F3B801CE0184
:1004C0000E94EB14882371F3B801CE010E94C1147D
:1004D000882341F3F8018581882361F0C330FCE76C
:1004E000DF07E9F058F4C115ECE7DE07A9F0C130E9
:1004F000DC47B9F0C8010E94C401D5CFCB358CE7E9
:10050000D807A9F0CC35ECE7DE0771F0CA35DC4737
:1005100089F70E947A0BEECF0E943802C3CF0E9467
:10052000820B0E943E02BECF0E94700BE3CF0E945E
:100530007E0BE0CF0E94291A0E94BA0208950E9401
:10054000BE020E942E1A089581E008950895CF9367
:10055000DF93D82F0E94A402C82F882319F08D2F73
:100560000E94A6028C2FDF91CF91089508950E94DA
:10057000A702089580E00E94B70208950E94F8182B
:100580000E94B7020895CF930E94F818C82F809157
:10059000B0018C1779F0C093B0010E94B81A609333
:1005A000B1017093B2018093B3019093B4018C2F89
:1005B0000E94B702CF910895ADE0B0E0E2EEF2E024
:1005C0000C94AA23488759876A877B878C879D87E5
:1005D00091110E94B00A1F8286E0FE013896DE016A
:1005E000119601900D928A95E1F78D8181110DC0D0
:1005F00029813A814B815C816D817E818F810E944E
:10060000FA092D96E2E00C94C623CE0101960E94D1
:1006100009028111EDCFF5CFFC012481213021F4B5
:10062000808191810E9495070895662329F00E9498
:100630004C160E941F1708950E94A616FACFCF935A
:10064000C82F8823C1F08CEF8C0F813AB0F48C2F27
:100650000E94EE1381110FC08C2F0E9484198823F1
:1006600029F08C2F0E94C7190E941F0B8C2F0E940B
:10067000BF190E941F0BCF91089580E28C0F883024
:1006800048F4C77081E001C0880FCA95EAF70E945C
:10069000930AEFCFEBE5EC0FE33040F4F0E0EC59D8
:1006A000FE4F808190E00E942519E5CFE8E5EC0F30
:1006B000EB3150F4F0E0EE0FFF1FE25DFE4F808162
:1006C00091810E944A19D7CF83E38C0F833198F62A
:1006D00061E08C2F0E941503CECF882381F19CEF1F
:1006E000980F913A28F40E94C7190E941F0B089591
:1006F00090E2980F983050F4877091E001C0990F04
:100700008A95EAF7892F0E94990AEFCF9BE5980F07
:10071000933028F490E080E00E942519089598E530
:10072000980F9B3128F490E080E00E944A190895C8
:1007300093E3980F933118F460E00E941503089535
:100740001F93CF93DF93182FEB010E941F03209775
:1007500039F4812F0E946D03DF91CF911F9108958D
:100760008FE99FE00197F1F700C000002197EFCFDC
:1007700070E060E0893311F460E570E00E94A0034E
:100780000895882321F00E94930A0E941F0B089568
:10079000882321F00E94990A0E941F0B0895B0E05F
:1007A000A0E0E5EDF3E00C94A3236C01D62FC72F56
:1007B000FC011581068102950F700E94890AE82EBE
:1007C0008823F9F0E12E1123E1F08C2F807F803413
:1007D00061F080E28D0F883008F18C2F807E8032AE
:1007E00021F4D230D8F00023C9F080919A0282FF20
:1007F00015C082E00E94440B0E94890A91E0E82E15
:10080000E926BC2EB2949FE0B922FBE0FB15B8F1BB
:10081000EB2DF0E0E15BFB4D0C949423E12CF1CF48
:100820000C2F0F70C07F11F00295007F112399F0FB
:10083000002359F080E28D0F883010F0D11107C0ED
:10084000802F0E94930A0E941F0B8D2F5AC0802F69
:100850000E94A30AF8CF8D2F0E946D03002379F028
:1008600080E28D0F883010F0D11104C0802F0E94DB
:10087000990A03C0802F0E94A90A0E941F0BEB2D2A
:10088000E850FF0B349720F40E94F8180E94B7023A
:10089000EE2089F00E94850A80FD0DC0F6011582C8
:1008A0000E947F0A0E949D06C6010E94DB050E94ED
:1008B0007F0A0E94AD06CDB7DEB7E9E00C94BF23F6
:1008C0002C2F2F70F22EC07FC03219F0F29480EFDF
:1008D000F822DD2341F0D130D1F1112309F444C0D5
:1008E0000023F1F0B2CF80919A0282FD15C011234E
:1008F00059F0FF2029F08F2D0E94930A0E941F0BB0
:1009000080E00E941F03BBCF80E00E946D03FF20A8
:1009100009F4B5CF8F2DABCF112369F0011104C0BD
:100920008F2D0E94C103ABCF013009F0A8CF8F2DCE
:100930000E94C70AA4CF0111A2CF8F2D0E94C80325
:100940008F2D0E94D30A8F2D0E94B70A98CF1123B2
:1009500021F0063008F093CFE3CF053008F08FCFB9
:100960008F2D0E94C8038BCF0023D1F3D93349F4D4
:100970003FEF87EE93E0315080409040E1F700C0B8
:1009800000008D2F0E946D037ACF8C2F869586955F
:10099000837069F0813009F072CF8D2F9C2F937096
:1009A000111102C080E090E00E944A1968CF8D2F9B
:1009B0009C2F9370111102C080E090E00E942519D5
:1009C0005ECF612F8D2F0E94150359CF8C2F83701E
:1009D000A1F5111154CF4D2F429546954770440F04
:1009E000440F2D2F2F7030E0042E02C0220F331F32
:1009F0000A94E2F790E080E0D4FF09C08FE090E035
:100A000002C0880F991F4A95E2F780959095C69588
:100A1000C695C370822B932BC23049F058F4C13075
:100A200019F00E946D062BCF0E94640628CF0E9409
:100A3000760625CF0E94610622CF8695112311F0FC
:100A40008C2F8170882309F41ACF4D2F429546953B
:100A50004770440F440F2D2F2F7030E0042E02C03A
:100A6000220F331F0A94E2F790E080E0D4FF09C020
:100A70008FE090E002C0880F991F4A95E2F78095B9
:100A80009095C695C695C370822B932BC23049F0C2
:100A900058F4C13019F00E94D806F1CE0E94CF065A
:100AA000EECE0E94E106EBCE0E948506E8CECF7026
:100AB000112329F08C2F0E949D068D2F32CF8D2F70
:100AC0000E94C8038C2F0E94AD06D9CED23F41F1BF
:100AD00060F4D03FB9F0D13F81F0112309F443C055
:100AE0000111B3CE8C2F8F711FC0D33F01F1D43FC2
:100AF000A1F780919A0282FD24C08C2F8F7111235F
:100B000011F312C0112341F0053008F0B8CE8C2F3C
:100B10008F710E94BF06B3CE063008F0B0CEF7CF7B
:100B20008C2F8F711111CFCF0E949D06A8CE11235B
:100B300029F08C2F8F710E949106A1CE0E948C0605
:100B40009ECE112331F063E08C2F8F710E94260B13
:100B500096CE81E00E94440B023008F490CE82E0F1
:100B60000E94440B8CCE002359F0D93309F009CFF1
:100B7000EFEFF7EE23E0E150F0402040E1F7FFCE49
:100B80008C2F8F71A0CF0F931F93CF93DF93EC0126
:100B9000688179818D810E94A0078C010E94EA06FC
:100BA0000E946006B801CE010E94CF03DF91CF9171
:100BB0001F910F910895CF93DF93EC018C818823CF
:100BC00099F0CE010E944402811111C00E94890A4D
:100BD000882351F08D81882339F080919A0282FF19
:100BE00003C082E00E94440BDF91CF910895CE01B3
:100BF0000E94C305CE010E941502F6CF90E080E06E
:100C00000E94251990E080E00E944A190E94B00AD3
:100C10000E941F0B0E943B170E941F1708950E94FD
:100C2000CF190E94FE0508950E94A00A0E940F0697
:100C3000089592959F70963091F058F4925F9F704E
:100C4000923058F4803F19F030F4883E30F481E05F
:100C500008959A5FF4CF843FD1F380E00895883EF1
:100C6000B0F3813FD1F7F3CFFC012481222339F087
:100C7000808191810E9495070E941906089580E065
:100C80000895A6E0B0E0E7E4F6E00C94AA232696E7
:100C9000E2E00C94C623A7E0B0E0E1E5F6E00C94B6
:100CA000AA232796E2E00C94C62308950E945506D5
:100CB00008950E9456069093DD018093DC0108950B
:100CC00008950E94590608952091DC013091DD01BC
:100CD000822B932B0E94590608952091DC013091BC
:100CE000DD01822393230E94590608952091DC019F
:100CF0003091DD01822793270E94590608950E94B2
:100D0000550608950E947F0608950E9482069093DA
:100D1000DB018093DA01089590E080E00E9485066F
:100D2000089521E030E0A90102C0440F551F8A95C3
:100D3000E2F7CA010E948506089521E030E002C072
:100D4000220F331F8A95E2F78091DA019091DB013F
:100D5000822B932B0E948506089521E030E002C08B
:100D6000220F331F8A95E2F7209530958091DA01A2
:100D70009091DB01822393230E948506089521E050
:100D800030E002C0220F331F8A95E2F78091DA012A
:100D90009091DB01822793270E9485060895209178
:100DA000DA013091DB01822B932B0E948506089596
:100DB0002091DA013091DB01822393230E94850682
:100DC00008952091DA013091DB01822793270E9458
:100DD000850608950895262F277091E001C0990F88
:100DE0002A95EAF723E0769567952A95E1F7660F4D
:100DF000771F660F771FFA01E60FF71F50E040E0FC
:100E0000682F70E08191DF0111979B01042E02C0D1
:100E1000369527950A94E2F72170219528272923F2
:100E200028272C934F5F5F4F4430510559F70895A1
:100E3000A82FA77023E0969587952A95E1F7880F4C
:100E4000991F880F991FFB01E80FF91F50E040E040
:100E500080E0219130E00A2E02C0369527950A9451
:100E6000E2F721703327042E01C0220F0A94EAF71B
:100E7000822B4F5F5F4F4430510559F70895262F5D
:100E80009C3070F4863060F4682F70E086E0989FA4
:100E9000600D711D112446EB51E0822F0E94EB067C
:100EA0000895292F9C3068F4863058F490E066EB62
:100EB00071E036E0239F800D911D11240E941807D8
:100EC000089580E00895B0E0A0E0E9E6F7E00C9432
:100ED000A3237C010091DA011091DB018091DC01F8
:100EE0009091DD01082B192BCFE0D0E0CC24C394E6
:100EF000D12CBC2EC6010C2E02C0880F991F0A945B
:100F0000E2F780239123892B49F4219790F7B12CA4
:100F10008B2DCDB7DEB7E9E00C94BF23B7018C2F42
:100F20000E94490E019789F3F3CFCF93DF93EC0131
:100F30000E946307BE010E94490EDF91CF91089580
:100F40001F93CF93DF93EB019091B501992339F073
:100F5000CB010E949507DF91CF911F9108958823BF
:100F600069F0CB010E946307182F682FCE010E9401
:100F70003F07BE01812F0E94490EEDCFCB010E9499
:100F80005107182FF6CF1F93CF93DF93C091DE0147
:100F900017E08091DF018C1304C0DF91CF911F9186
:100FA0000895D0E01C9FF0011D9FF00D1124E05228
:100FB000FE4F208131814281538164817581868118
:100FC0000E944B062196C770E4CF20911802309101
:100FD000190240911A0250911B0260911C027091FB
:100FE0001D0280911E020E944B060895CF93DF934D
:100FF00080911E02807F09F04DC080911D028823E0
:1010000009F448C0E091DE015091DF01C09119025E
:10101000D091180260911A0270911B0247E05E178E
:10102000C9F18E2F90E0E49FF0011124E052FE4FB1
:101030002481222391F1489FF001499FF00D112452
:10104000DF01A052BE4F11962C9111972C1325C091
:101050002C912D1322C015962C91159721111DC08E
:1010600012962D913C91261B370B283C3105A8F494
:1010700080911E028F70806180931E02EA51FE4FA4
:1010800080818F708061808388E192E00E94DB051F
:101090000E94C307DF91CF910895FC013196E7705C
:1010A000BECF482F2091DE019091DF0157E0291338
:1010B00002C080E0089530E0529FF001539FF00D90
:1010C0001124E052FE4F8181681306C080814813CD
:1010D00003C085818111EECF2F5F3F4F2770E7CF8F
:1010E000A4E1B0E0E6E7F8E00C94A0238C0186E0F0
:1010F000F801DE011F9601900D928A95E1F7F80143
:101100008481E58098E1A92E92E0B92E90911C028D
:1011100091111FC08823D1F0EE20A9F0C8010E94D0
:101120003406F82E882379F087E0F801D501019084
:101130000D928A95E1F7C5010E940C030E94F60703
:101140000E94E5075FC0C8010E94DB05FF24F394FD
:1011500059C0C080D18082809380F0901D02209180
:101160001A0230911B02A401421B530BFF2009F409
:10117000F9C0483C510508F0A7C0882309F442C0D3
:101180009091190280911E02282F207F09F05CC0E7
:101190009D1116C090911802C91212C0E1104EC0E4
:1011A0008F70806180931E020E94E50788E192E0C3
:1011B0000E94DB0580911E02F8018683F12C22C07B
:1011C000E1103CC06D2D8C2D0E9451086D2D8C2D91
:1011D0000E945108E82E8111F1CFCF86D88A8F85E1
:1011E00098890E949507292F22952F70243078F432
:1011F0009F702230A8F09923B9F0F8019681907F72
:1012000099F4FE2C8F2D6496ECE00C94BC232A5F9D
:101210002F70223068F0C8010E94DB05EF2CF1CF5F
:10122000992311F0882369F3805E883050F3F3CF5F
:10123000803F38F3815F833070F7E3CF80911E02E7
:10124000816080931E02BACF9D1113C09091180245
:10125000C9120FC0E1100DC08683C8010E94DB05D2
:1012600087E0F801A8E1B2E001900D928A95E1F7DC
:1012700067CFC8010E943406882309F464CFEE20AA
:1012800009F461CF80911E02803288F0209118020B
:1012900030911902398728879B868A8690911C0293
:1012A0009C871D868E87CE0108960E94DB0587E00D
:1012B000F801A8E1B2E001900D928A95E1F70E9451
:1012C000F6070E94E50742CF90911E02292F207F4A
:1012D000A1F4682D9A8A898AA6017A899E2D0E9496
:1012E000410688E192E00E94DB0587E0F50111925A
:1012F0008A95E9F70E94E50761CF882309F482CF38
:10130000809119028D1110C080911802C8120CC072
:10131000E1100AC09683C8010E94DB0587E0F50151
:1013200011928A95E9F76ECFC8010E94340688238E
:1013300009F409CFEE2009F406CF80911E02803215
:1013400008F4B5CF20911802309119023A8329830D
:101350009C828B8290911C029D831E828F83CE0182
:101360000196A3CF483C5105B8F5882309F4EECE89
:10137000FE2CEE2009F4E7CE809119028D111EC0DB
:1013800080911802C8121AC080911E0280FD0DC003
:10139000982F907F51F08683903F09F45ECF982F6D
:1013A000907F905F8F70892B57CF87E0F801A8E17D
:1013B000B2E001900D928A95E1F724CFC8010E9416
:1013C0003406811174CF80911E02816080931E02C9
:1013D000C8010E94DB0516CF682D9A8A898AA6016A
:1013E0007A899E2D0E94410687E0F50111928A9527
:1013F000E9F7A6CEAEE0B0E0E0E0FAE00C94A92375
:10140000288739874A875B876C877D878E87CE01DF
:1014100008960E9470088823B1F06C85662341F01D
:10142000288539854A855B857D858E850E944B069A
:1014300017E08091DE019091DF0189133DC02E9667
:10144000E3E00C94C52387E0FE013896DE01119697
:1014500001900D928A95E1F78C85882349F32091BC
:10146000DF0130E0C9010196877099274091DE01C4
:101470004817190699F097E0929FD001939FB00DFD
:101480001124A052BE4FFE01319601900D929A9503
:10149000E1F78093DF010E94C307CACF0E941406C0
:1014A0001092DF011092DE0187E0E8E1F2E0DF0157
:1014B0001D928A95E9F7BCCF819FC001112480520B
:1014C0009E4F0E947008882309F4B9CFE091DE0195
:1014D0001E9FF0011124E052FE4F20813181428194
:1014E00053816481758186810E944B068091DE0163
:1014F00090E00196877099278093DE019ACF8091C2
:101500002702869586958695089580912702877093
:10151000089590912702977081E009F480E0089582
:1015200080913302089590913302892B8093330286
:1015300008958095909133029823909333020895F3
:1015400010923302089590913202892B80933202D7
:1015500008958095909132029823909332020895D5
:1015600010923202089508950E94B30A089590914E
:101570002802292F282331F080958923809328027F
:101580000E94B40A089508950E94C30A0895909194
:101590002902292F2823281729F0982B9093290214
:1015A0000E94C40A089590912902292F282331F01E
:1015B00080958923809329020E94C40A089580910E
:1015C0002902882329F01092290280E00E94C40A8F
:1015D00008950F931F93CF93DF9300910001109113
:1015E0000101C091330280913202C82B80912902FF
:1015F000882331F0C82B0E946F1981110E94DF0AE5
:10160000F801C083C0910001D091010148E050E091
:101610006FE172E0CE010E94E523892B59F088E04A
:10162000FE01AFE1B2E001900D928A95E1F7CE01A3
:101630000E940C19DF91CF911F910F9108950E9484
:10164000E90A089508950E94220B089590919A0244
:1016500092FF11C098E0899F90011124622B609342
:1016600027020E949D068091270286958695869581
:101670000E94230B08950E949D0608951092270250
:1016800080E00E94230B0895909127028095892382
:1016900080932702282F277069F4891759F09091B9
:1016A0009A0292FF07C08695869586950E94AD06A0
:1016B0000E943E0B089590919A0292FB222720F9F6
:1016C000281769F080FB92F990939A028091990211
:1016D00090919A020E94A30B82E00E94440B08950D
:1016E00080919A0282FB882780F991E089270E94E5
:1016F0005B0B089581E00E945B0B089580E00E94DF
:101700005B0B08956FEF7FEF90E080E00E9437243D
:10171000089590E080E00E94032421E0853E9E4FE2
:1017200009F020E0822F089582E090E00E94FB23E0
:10173000089583E090E00E94FB23089584E090E008
:101740000E9403240895BC0184E090E00E943724A5
:101750000895AB01BC018FE090E00E942B24089516
:10176000AB01BC0183E190E00E942B24089560E06E
:1017700070E0CB010E94B00B089560E070E0CB01F7
:101780000E94A90B0E94B70B0895A8E0B0E0EBEC13
:10179000FBE00C94AA2365EE7EEF90E080E00E94CF
:1017A000372460E082E090E00E94192481E090E01C
:1017B0009093DD018093DC0161E083E090E00E9482
:1017C000192460E074E184E090E00E94372460E036
:1017D00086E090E00E94192460E087E090E00E949B
:1017E000192440E050E0BA0188E090E00E942B24E8
:1017F00060E083E290E00E94192460E08CE090E0D9
:101800000E94192460E08DE090E00E941924198262
:101810001A821B821C821D821E821F82188648E04B
:1018200050E067E170E0CE0101960E94092440E09B
:1018300050E0BA018FE190E00E942B240E94BD0B82
:101840002896E2E00C94C6230E94C50B0895682FE9
:101850008EE090E00E9419240895A6E0B0E0E3E352
:10186000FCE00C94A8230E94AC1A8C0180913402F5
:10187000909135028017910781F019821A820E9497
:10188000AC1A682F49815A81792F80E090E00E943C
:10189000DC0210933502009334022696E4E00C94A7
:1018A000C4230E94650F60934602709347028093A1
:1018B00048029093490260934202709343028093DE
:1018C0004402909345020895089508950E94640C7F
:1018D000089508950E94690C089581E008958FE7A6
:1018E0009FE00E9437130E94650C0E94660C0895C9
:1018F0000E9436110895089508950E947B0C0E945D
:101900007C0C08950E94890B811102C00E94240C56
:101910000E94940B80934A020E949E0B90939A021D
:10192000809399020E945A130E94990B90E00E94A2
:1019300061068091DA019091DB010E948206089590
:101940000E94A31A0E943F0F0E943C110E948D101A
:101950000E94820C0E94B6020E94A9140E944E119D
:101960000E946A0C0895A6E0B0E0E9EBFCE00C945C
:10197000A1230E946D0C81110CC00E942D0C0E94AD
:1019800036110E945D170E94C3022696EBE00C946C
:10199000BD230E94B01086E3A82E82E0B82E750108
:1019A00010E0F70101917F01812F0E94890F1F5FD5
:1019B0001C3009F441C00817A1F380914A0281FD4F
:1019C0000E948F0F0E94780CC82E10E099249394E7
:1019D000812F0E94890F082FF50181915F0108175F
:1019E00029F1F12CEE24E394D02ED8268D2D8E21D2
:1019F000A9F0CC2099F0F9821A830E94AC1A9C833A
:101A00008B839D8291E0802F8E2109F490E04981A3
:101A10005A816B817C818D810E94DC02F394EE0CF3
:101A2000F6E0FF12E3CFF501319700831F5F1C3012
:101A300079F60E94510CA3CF0813BFCF9ECF1F93FE
:101A4000CF93DF930E944E0EEC01C11580E5D807BD
:101A5000F0F5C11580E4D80708F09CC0C03ED10560
:101A600020F5CD3CD10508F082C0C83AD10578F404
:101A7000C53AD10508F073C0C130D10519F12097DE
:101A800009F1C430D105F0F4D0E0C0E01BC0C33C84
:101A9000D105D0F7C85AD0E0CC0FDD1FC959DE4FB1
:101AA0000990D881C02DD4640DC0C11580E2D8073B
:101AB00008F0D1C0C11581E0D80708F05AC0C83E6F
:101AC000D10510F7CE01DF91CF911F910895C03657
:101AD00082E5D80718F5C03482E5D80708F06BC056
:101AE000C03282E5D80708F05FC0C11582E5D8078B
:101AF00008F497C02C2F2695269580E2289F900108
:101B000011248C2F8370C1E0D0E002C0CC0FDD1F08
:101B10008A95E2F7C22BD32BDD68D4CFC03A82E599
:101B2000D80760F4C03882E5D80708F459C0CF71EF
:101B3000D0E0DC2FCC27C46FD06AC4CFC03C82E594
:101B4000D80708F462C0C03E82E5D80708F09CCFF1
:101B5000DC2FCC27CC27DF71C06FD06AB3CFC55A3A
:101B6000D0E0C356DE4FC881D0E0D064ABCFD065A3
:101B7000A9CF8D2F0E94F00E182FCE0199270E9419
:101B80004E0EC12FD0E0DC2FCC27CC27DF71C82B25
:101B9000D92B98CFCE0199270E944E0ECC27DF700B
:101BA000C82BD92BD06A8ECFCF71D0E0DC2FCC27B9
:101BB000C16FD06A87CF2C2F26952695277080E29B
:101BC000289F900111248C2F8370C1E0D0E002C0C7
:101BD000CC0FDD1F8A95E2F7C22BD32BDC6872CFC6
:101BE0002C2F26952695277080E2289F900111249E
:101BF0008C2F8370C1E0D0E002C0CC0FDD1F8A952E
:101C0000E2F7C22BD32BDA685DCF8C2F8F710E9445
:101C1000F00EC82FD0E0DC2FCC27CC27DF71D062AC
:101C200051CF8C2F8F710E94F00E55E0D695C7953D
:101C30005A95E1F7CF70D0E0DC2FCC27282F30E089
:101C400084FF05C044E0220F331F4A95E1F7C22B01
:101C5000D32BD06937CF8D2F8F710E94F00E182FA4
:101C6000CE0199270E944E0EC12FD0E0DC2FCC2749
:101C7000CC27DF71C82BD92BD2CF462F7C3030F444
:101C8000663020F4672F0E94BC01089590E080E048
:101C900008950E943D0E0E941F0D089582389105FF
:101CA000B9F1B0F48133910509F47DC048F489326B
:101CB000910509F46DC08A32910509F47BC008953D
:101CC0008533910509F45FC08933910509F10895C1
:101CD000833E9105D9F138F4803E910529F1823E89
:101CE000910579F10895863E9105D9F1873E9105D8
:101CF00009F43EC0843E910541F520919A0221FFEE
:101D000024C08091990284FD19C087EE90E0089567
:101D100020919902237009F05AC020919A0223FF62
:101D200014C089E290E008952091990220FD38C006
:101D300030919A0230FF09C024FF43C090E080E058
:101D400008952091990222FDF7CF089520919902DC
:101D500022FD3AC030919A0230FD39C024FFF5CF00
:101D6000EDCF2091990223FFF0CF24FDE7CFCDCF17
:101D70002091990223FD2EC030919A0231FFEECFBF
:101D800084EE90E008952091990225FFDECFC9CF1F
:101D90002091990225FD21C020919A0223FFD5CFE1
:101DA00089E390E0D2CF2091990226FFCECF8AE23C
:101DB00090E008952091990226FFC7CF81E390E03B
:101DC000089583EE90E0089582EE90E0089580EE0D
:101DD00090E0089586EE90E0089585E390E0089500
:101DE0009091990292FF10C041E0282F2471243075
:101DF00009F040E031E0282F2871283009F030E068
:101E0000431711F02CE0822793FF10C041E0282FE8
:101E10002471243109F040E031E0282F2871283165
:101E200009F030E0431711F02CE0822730919A023C
:101E300030FF10C051E0282F2171213009F050E00F
:101E400041E0282F2871283009F040E0541711F0A4
:101E500029E0822731FF10C041E0282F2171213174
:101E600009F040E031E0282F2871283109F030E0F6
:101E7000431711F029E0822794FD877E0895109280
:101E80009B0210929C0210929D0210929E02089555
:101E9000CF92DF92EF92FF926B017C010E9436118C
:101EA00081110EC00E94B81AC61AD70AE80AF90AA8
:101EB000C0929B02D0929C02E0929D02F0929E0200
:101EC000FF90EF90DF90CF9008950F931F930E94A3
:101ED0003611882329F00E94B81A1F910F91089596
:101EE0000E94B81A00919B0210919C0220919D02C1
:101EF00030919E02600F711F821F931FEECF80E012
:101F0000089508950E94810F089508950E94850FF5
:101F10000895E82FF0E0E455FD4F8081089508957D
:101F200080EA8A95F1F7089500C008950E94900F05
:101F3000089508950E94990F0895A6E0B0E0E3EA9D
:101F4000FFE00C94A6230E943611F82E6091B8028F
:101F5000882309F440C086E0E82E8E010F5F1F4FF2
:101F6000F8018E2D11928A95E9F7862F90E0B8013D
:101F700084559D4F0E945C118823B9F080919F0287
:101F800090E046E050E0B80184559D4F0E94E52363
:101F900021E020934B02892B91F4F12C0E94860FB3
:101FA0008F2D2696E6E00C94C22380914B02882365
:101FB000A1F3F8011192EA94E9F710924B02A09173
:101FC0009F02B0E0A455BD4F86E0F80101900D924C
:101FD0008A95E1F7E3CF70E064557D4F80919F02D1
:101FE00090E084559D4F0E94E3110E949A0FD8CF34
:101FF000F894E82FE295EF70F0E031A1282F2F70D0
:1020000081E090E001C0880F2A95EAF7982F90951B
:10201000932391A392A1892B82A3789408950F937F
:102020001F93CF93DF93C6EAD1E089918F3F11F0E0
:102030000E94F80F81E0CC3AD807B9F7C0EAD1E0A6
:1020400006EA11E089918F3F11F00E94F80F0C17FA
:102050001D07C1F7DF91CF911F910F910895B0E057
:10206000A0E0E5E3F0E10C94A423EC01D62E062FCA
:1020700010E0C8018A559E4F7C01FC0180818F3F92
:1020800009F444C0F894E82FE295EF70F0E091A1D4
:102090008F7021E030E001C0220F8A95EAF7892F86
:1020A000822B81A382A12095282322A378940E94C9
:1020B000940FE0EAF1E031E0C12C21912F3F59F17A
:1020C000A22FA295AF70B0E090968C9190E02F7007
:1020D00002C0959587952A95E2F780FD1CC0832F55
:1020E000C82A330F81E0E63AF80739F7F701808113
:1020F0008F3F11F00E94F80F61E0C11001C060E055
:102100008D2D0E94960FC00FD11FC882CDB7DEB7AC
:10211000E8E00C94C02380E0E3CF8091020180913D
:10212000020196E0811190E09093B80286E0891B4D
:1021300080939F020E940F108CE0ECEAF2E0DF0136
:10214000982F1D929A95E9F7E0EAF2E0DF011D92DF
:102150008A95E9F786E00E94EE100E94820F0895AA
:10216000ACE0B0E0E6EBF0E10C94A7238E010F5F4A
:102170001F4F8CE0F80111928A95E9F7F12C6F2D31
:10218000C8010E942F10F394F6E0FF12F8CF4CE044
:1021900050E0B80180EA92E00E94E52321E0009738
:1021A00009F420E0892B41F08CE0F801A0EAB2E0CC
:1021B00001900D928A95E1F76091B80270E0645544
:1021C0007D4F46E080EA92E00E94EF10182F0E94B7
:1021D0009D0F812B2C96E5E00C94C3230895B0E06D
:1021E000A0E0E5EFF0E10C94A4236C017B01042F47
:1021F000C22F222379F081E080934E020E94AC1A14
:1022000090934D0280934C0280E0CDB7DEB7E8E0BA
:102210000C94C023D0914E02DD23B1F380914C0287
:1022200090914D020E94C41A059770F310E0A80126
:10223000B601C7010E94E523892B31F0A801B60140
:10224000C7010E94F223CD2F10924E028C2FDDCFBA
:10225000CF930E947323C82F811102C00E946E2366
:102260008C2FCF9108958091520208958091510250
:1022700008950E94361108950E94281180935102FA
:102280000E943911809352020E94331180930201FF
:102290000E94361181110E94921108950E943611F8
:1022A000811102C00E949511089581E0909153021E
:1022B0009A3008F080E008950F931F93CF93DF9337
:1022C000EC018B01809153028A30B8F4B801CE0141
:1022D0000E94E011C82F811122C0809153028F3FCC
:1022E000B9F40E94AC1A9093500280934F028C2F45
:1022F000DF91CF911F910F91089580914F0290919E
:1023000050020E94C41A843F914000F7C0E0EFCF12
:102310008F5F809353028A3020F7C1E0E8CF10929C
:102320005302E5CF0E94871B08950E948A1B0895DF
:10233000B0E0A0E0EEE9F1E10C94A5237901C82F0B
:10234000880FDD0B41155105A9F0FE0193E0EE0F5A
:10235000FF1F9A95E1F7ED5FFE4F818192818C5AC4
:102360009D4F208130E04217530708F49A01A901DC
:102370000E94F223CE010E94731CD82E8823D1F034
:1023800001151105B9F083E0CC0FDD1F8A95E1F747
:10239000FE01ED5FFE4F438150E00417150708F47E
:1023A000A801CD5FDE4F6C817D816C5A7D4FC701E6
:1023B0000E94F2238D2DCDB7DEB7E7E00C94C12348
:1023C0000E94D21208950E94E9120895A4E0B0E09C
:1023D000ECEEF1E10C94A82360916D0270916E0215
:1023E00080916F02909170020E94D31A11E06436BE
:1023F00071058105910518F10E94650F6E5F7F4F91
:102400008F4F9F4F69837A838B839C8310E000E01A
:1024100030E020E044E050E0BE016F5F7F4F82E09B
:102420000E949811182F882351F00E94B81A6093C7
:102430006D0270936E0280936F0290937002812FF1
:102440002496E4E00C94C423B0E0A0E0EAE2F2E1D8
:102450000C94A2237C015B016A010E94551101E0EA
:1024600010E0882311F00AE010E0C1E0D0E0B501EF
:10247000C701F6010995811104C021960C171D07AB
:102480002CF4CDB7DEB7EAE00C94BE23CC9F9001CC
:10249000CD9F300D300D112490E080E045E34A954A
:1024A000F1F70000019682179307C1F7E0CFA7E08C
:1024B000B0E0EDE5F2E10C94A2237B01C090AC0109
:1024C000D090AD0101E010E09E01295F3F4F50E048
:1024D00040E070E060E080E00E949811182F8823AF
:1024E00009F448C056018FEFA81AB80A6091690232
:1024F00070916A0280916B0290916C020E94D31AD3
:10250000643671058105910568F106E010E09E01D1
:102510002F5F3F4F50E040E070E060E081E00E94BC
:102520009811D82E66E070E0C5010E94AA1411E04F
:102530009F81981310E01D2141F10E94B81A609309
:10254000690270936A0280936B0290936C0286E03A
:10255000FE013196A3E6B2E001900D928A95E1F773
:1025600011E013C066E070E0C5010E94AA149F81CB
:102570008913CBCF86E0F6013196DE0111960190EA
:102580000D928A95E1F71111E2CF86E0E3E6F2E0E1
:10259000D70101900D928A95E1F7812F2796EAE005
:1025A0000C94BE230F931F93CF93DF93EC018B0109
:1025B00047E552E10E942412882331F046EE51E1B2
:1025C000B801CE010E942412DF91CF911F910F918B
:1025D00008950F931F93CF93DF93C091AC01D091D7
:1025E000AD01CE01019626E0FB01DC0101900D92C8
:1025F0002A95E1F766E070E00E94AA1488836F8153
:10260000788589859A8500915F02109160022091FA
:10261000610230916202601771078207930751F0DF
:1026200060935F02709360028093610290936202F4
:102630000E94480FDF91CF911F910F9108950E9442
:10264000B30C08950E94451A0E942A1E0E946F0C26
:102650000E94441E0E94A00C0E94511E0E94561E01
:102660000E941F130E94701E0E947D0CF7CF909352
:10267000AF018093AE0108950E94820B089580E01F
:102680000E94890F817008950E94B0102FEF86E795
:1026900091E0215080409040E1F700C000000E948E
:1026A000B0100E943F13882321F00E943C130E9427
:1026B000131B08950E94441308958B3109F465C0DB
:1026C00040F58B3071F078F4863009F447C020F47F
:1026D000853059F180E00895873009F448C088308A
:1026E000C9F781E00895803109F45DC068F48E3047
:1026F00089F790914A02892F8B7F92FF84608093A3
:102700004A0282FD4CC0EDCF863159F3893149F33D
:10271000E1CF8A3201F160F48732B1F020F48E31DA
:10272000C8F28D514CC08932A9F60E943802D9CF27
:10273000833440F48A3308F041C0853329F088336C
:1027400081F2C8CF833431F681E090E00E946106C7
:102750000E941406C6CF0E94240CC3CF80914A0267
:10276000807F80934A0281E0809374020895909163
:102770004A02892F8E7F90FF816080934A0280FDFC
:10278000B0CF817F80934A02ACCF90914A02892FCB
:102790008D7F91FF826080934A0281FFA2CF80915A
:1027A0004A028160EFCF90914A02892F877F93FF81
:1027B000886080934A0283FDF2CF93CF895321E052
:1027C00030E0A90102C0440F551F8A95E2F7CA0103
:1027D000BDCF80E008950E94E9130895CF93C82FDC
:1027E000809174028130B9F0882331F08230A1F1F8
:1027F0001092740280E00DC00E94900A8232D1F7DC
:102800008C2F0E94E91381111BC08C2F0E945D1335
:102810008170CF9108950E94900A823289F38C2FA3
:102820000E94EB1381110AC0C43199F060F4CB30DF
:1028300029F0C03169F782E08093740281E0E8CF2B
:1028400081E090E0E5CFC93221F0C833B9F380E0F0
:10285000DFCF10927402FBCFC93209F440C0F0F40C
:10286000C431E9F1A8F481E0C73099F680932201E0
:1028700084E1809321018AE0809320018EE180939E
:102880001F0188E080931C0188E280931B0104C033
:1028900082EE8C0F8A3070F181E0BBCFC03509F435
:1028A00050C0B8F48AE0CF34B9F7E0917102F091EA
:1028B0007202309789F32081082E000C990B820F49
:1028C000911D8F3F910509F00CF43FC08FEF80837D
:1028D000E3CFC135C1F181E0C23539F39ACF8091A0
:1028E00073028823C9F2109273021092720210923E
:1028F0007102D2CFCD51C0937302C330C9F048F4F6
:10290000C13099F081E291E0C23051F0109273022F
:10291000C3CFC53099F078F08BE191E0C630B1F7C4
:102920009093720280937102B7CF82E291E0F8CF68
:1029300080E291E0F5CF8FE191E0F2CF8CE191E080
:10294000EFCF86EFB2CF8FEFB0CF97FFC0CF10821F
:10295000A3CF0895FC01680F791F8FEF91E3E6176D
:10296000F70709F408952191822728E030E087FFD6
:1029700006C0880F892721503109C9F7F0CF880F89
:10298000FACFCF93DF93EB0186319C4711F50E947C
:10299000900A9D81992399F08A7A91E009F490E058
:1029A00090937502811109C089E20E94BF190E94AB
:1029B0001F0B80E0DF91CF91089585E3F6CF8091E2
:1029C0007502811104C089E20E94C719F0CF85E326
:1029D000FBCF81E0EFCFCF93DF93EC01FB0185814B
:1029E000882309F4D2C09E0130572332310508F004
:1029F000B2C00E949E0B90939A0280939902FE01AE
:102A0000E150F047E232F10520F4E55AFB4D0C9419
:102A100094238091990281608093990293C0809160
:102A20009A02886080939A028DC080919902826098
:102A3000F3CF809199028460EFCF809199028860F2
:102A4000EBCF80919A028160EDCF80919A028260F3
:102A5000E9CF809199028061DFCF809199028062F5
:102A6000DBCF809199028064D7CF0E9414068091B9
:102A700099028068D1CF809199028C60CDCF8091EE
:102A80009A028360CFCF809199028E7FC5CF8091CB
:102A90009A02877FC7CF809199028D7FBDCF8091A9
:102AA00099028B7FB9CF80919902877FB5CF8091B2
:102AB0009A028E7FB7CF80919A028D7FB3CF80919B
:102AC00099028F7EA9CF809199028F7DA5CF8091A9
:102AD00099028F7BA1CF0E941406809199028F7773
:102AE0009BCF80919902837F97CF80919A028C7FB0
:102AF00099CF8091990282FB992790F921E0922742
:102B000090FB82F990FB83F987CF80919A02982FEE
:102B1000909591708E7F892B90FB81F983CF909156
:102B20009902892F8F7B96FF806476CF0E941406CE
:102B300090919902892F97FB87F980586DCF81E09A
:102B40000E94270C8091990290919A020E94A30BF7
:102B50000E94140680E0DF91CF91089580E0F0CFCD
:102B600090919902892F8F7E94FF806155CF90912B
:102B70009902892F8E7F90FF81604ECF90919A02AB
:102B8000892F877F93FF88604DCF81E0E4CF282F86
:102B900035EB2303C001112497FF04C0805891092D
:102BA000892F089580589F4FFBCF80917C0280FF32
:102BB0000DC06091200170E0660F771F60387105CD
:102BC00070F56115710569F1862F089581FF07C0C1
:102BD0006091200184E0689FB0011124EFCF6091E3
:102BE000200182FD0AC080917B028823A9F02091F8
:102BF0001F0160912001821710F088E0ECCF869FC2
:102C0000C001112433E0880F991F3A95E1F7622F34
:102C100070E00E948023D2CF68E070E0D5CF8FE7CC
:102C2000089581E0089580917C0280FF0CC060913E
:102C30001C0170E07595679575956795611571052F
:102C400049F1862F089581FF06C060911C0170E054
:102C500075956795F3CF60911C0182FD0BC0909133
:102C60007A029923A1F060911B0180911C019617B3
:102C700038F0682F70E06038710500F38FE7089531
:102C8000899FC001112470E00E948023F4CF61E08D
:102C900070E0D7CF81E008958D3C31F40E94D515C6
:102CA00081958093800208958E3C19F40E94D51579
:102CB000F8CF8F3C31F40E94D515819580937F0227
:102CC0000895803D19F40E94D515F8CF893D29F467
:102CD0000E9413168093810208958A3D21F40E9478
:102CE00013168195F7CF8B3D31F40E941316819511
:102CF0008093820208958C3D19F40E941316F8CF38
:102D00009FE2980F983070F4815D990B21E030E0DC
:102D100001C0220F8A95EAF780917E02822B809370
:102D20007E0208958D3D31F480917C028160809314
:102D30007C0208958E3D21F480917C028260F7CF61
:102D40008F3DB9F780917C028460F1CF40917F0282
:102D50008D3C59F48091800287FF0DC01092800253
:102D600041110BC010927B0208C08E3C81F480910F
:102D7000800218169CF3442381F080918102909187
:102D80008202892B09F05AC010927A0208958F3C72
:102D900049F447FFF0CF10927F02809180028111A9
:102DA000ECCFE0CF803D19F41416ACF3E4CF909152
:102DB0008102893D29F41916F4F610928102DBCFC5
:102DC0008A3D19F497FFD7CFF8CF909182028B3DBF
:102DD00029F497FFD0CF10928202CDCF8C3D19F409
:102DE0001916CCF3C8CF9FE2980F983090F4815D0C
:102DF000990B21E030E0B90102C0660F771F8A9578
:102E0000E2F7CB01809590917E02892380937E0228
:102E1000B2CF8D3D31F480917C028E7F80937C0215
:102E2000AACF8E3D21F480917C028D7FF7CF8F3D1C
:102E300009F0A1CF80917C028B7FF0CF08950E9492
:102E4000AC1A9C0190917F0280918002982B21F016
:102E500030937902209378029091810280918202CE
:102E6000982B21F030937702209376028DE792E041
:102E70000E941719089586E0EDE7F2E0DF011D9248
:102E80008A95E9F710927B0210927A0210927C02E6
:102E90000895FC01828181110EC0838181110BC0D4
:102EA0008481811108C091E08581811101C090E089
:102EB000892F8170089581E0FCCFA6E0B0E0E3E6C1
:102EC000F7E10C94A92386E0EDE7F2E0DE0111962C
:102ED00001900D928A95E1F710927F021092800284
:102EE00010928102109282028B819C81892B89F041
:102EF00080917802909179020E94C41AAC0190915D
:102F00007B029923C9F1809121018417150608F4E9
:102F100040C08D819E81892B91F0809176029091A5
:102F200077020E94C41AAC0190917A02992309F4A5
:102F30006AC080911D018417150608F472C0BE0195
:102F40006F5F7F4F8DE792E00E94DA19811105C013
:102F50008DE792E00E94491781110E941F1786E0B9
:102F6000FE013196ADE7B2E001900D928A95E1F74E
:102F70002696E3E00C94C523209122018AE0289F45
:102F8000900111242417350720F69F5F90937B0250
:102F900002C09F3FD1F71B81112359F00E94D51524
:102FA0009FEF11160CF491E0899F802D11248093DE
:102FB0007F021C81112359F00E94D5159FEF111635
:102FC0000CF491E0899F802D1124809380028091E0
:102FD0007F02882309F49DCF10918002112309F408
:102FE00098CF0E94C715882351F080937F02812FCC
:102FF0000E94C715882329F0809380028ACF81E040
:10300000F4CF81E0F9CF20911E018AE0289F900142
:1030100011242417350708F092CF9F5F90937A020E
:1030200002C09F3FD1F71D81112359F00E94131652
:103030009FEF11160CF491E0899F802D112480934D
:1030400081021E81112359F00E9413169FEF111661
:103050000CF491E0899F802D11248093820280914D
:103060008102882309F46BCF10918202112309F4A5
:1030700066CF0E94C715882351F080938102812F6B
:103080000E94C715882329F08093820258CF81E0DF
:10309000F4CF81E0F9CF0F931F93CF93DF93C42F29
:1030A000D22FFC0185818823C9F0409385020E94BC
:1030B000AC1A909384028093830280E28C0F883054
:1030C00040F4C77081E001C0880FCA95EAF70E94FA
:1030D000C103DF91CF911F910F9108951091850247
:1030E000141332C080918302909184020E94C41A0A
:1030F000883C910548F5C0E2CD0F1D17B9F080E27C
:10310000810F883040F4177081E001C0880F1A9554
:10311000EAF70E94C803C83048F481E09D2F9770F9
:1031200001C0880F9A95EAF70E94C103802F0E9480
:10313000B803C83070F6D77081E001C0880FDA9507
:10314000EAF70E94C803C5CF80E28C0F883008F6EA
:10315000C77081E001C0880FCA95EAF7F2CF0F93DC
:10316000DB0188519C4787309105A0F5FC01E358AD
:10317000FB4D0C94942306E221EE41EE6AE17CE7DC
:10318000CD010E944B1880E00F91089507E225EED3
:1031900045EE6BE17CE7F4CF06E221EE40EE68E11C
:1031A0007CE7EECF07E225EE44EE69E17CE7E8CF6D
:1031B00006E221EE42EE6CE17CE7E2CF07E225EE8B
:1031C00046EE6DE17CE7DCCF08E221E045EE6EE102
:1031D0007CE7D6CF15968C91882319F01092850242
:1031E000D3CF81E0D1CF90938C0280938B0208954E
:1031F0000E943611811103C0809186020895E091EA
:103200008B02F0918C02309729F00190F081E02D33
:103210000995089580E00895E0918B02F0918C0269
:10322000309721F00280F381E02D09950895E09117
:103230008B02F0918C02309739F022E0DC012C9364
:103240000680F781E02D09950895A3E0B0E0EBE258
:10325000F9E10C94AA232091890230918A0228175F
:103260003907A1F090938A0280938902E0918B0242
:10327000F0918C02309751F023E029839B838A835D
:103280000084F185E02DCE01019609952396E2E0B8
:103290000C94C623A3E0B0E0E0E5F9E10C94AA2386
:1032A000209187023091880228173907A1F0909366
:1032B000880280938702E0918B02F0918C02309714
:1032C00051F024E029839B838A830084F185E02DDB
:1032D000CE01019609952396E2E00C94C623409115
:1032E0000001509101019A012E5F3F4F485F5F4FEF
:1032F00080E02417350709F40895F90191919F01A1
:103300009923B9F38F5FF5CF882371F020910001E5
:1033100030910101F9013296285F3F4F9191981742
:1033200029F0E217F307D1F780E0089581E00895CE
:103330009C01FC0132969FEF80E04191461751F0CD
:103340009F3F19F4411101C0982F8F5F8630A9F774
:103350009F3F09F40895290F311D97FD3A95F90112
:1033600062830895FC01329608962191261303C0CA
:10337000DF0111971C92E817F907B9F70895682F34
:1033800080910001909101010E9498190895682F81
:1033900080910001909101010E94B2190895E0917D
:1033A0000001F0910101329686E0DF011D928A95BD
:1033B000E9F70895DC01FB0111969C911197818139
:1033C000981322C012968C911297882319F092813B
:1033D00089131AC013968C911397882319F093813F
:1033E000891312C015968C911597882319F0958131
:1033F00089130AC014969C91992321F081E02481BD
:10340000291303C080E001C081E081700895089510
:103410000E94071A0895811106C081E080938D02F1
:103420000E94081A089582E0F9CF83E080938D020C
:103430000E94081A08950E940B1A089581E0809353
:103440008D020E94081A08950E941E1A0895089578
:1034500008950E94281A0895089508950E94271A31
:103460000895CF930E942C1A0E94B0100E942D1A2A
:10347000C0E08C2F0E94890F811105C0CF5FCC3036
:10348000C1F7CF91089581E0FCCF85B7806885BFF3
:1034900085B7806885BF08951F921FB61F921124BB
:1034A0008F939F93AF93BF9380918E02811113C02E
:1034B0008091B9029091BA02A091BB02B091BC0276
:1034C0004196A11DB11D8093B9029093BA02A093B9
:1034D000BB02B093BC02BF91AF919F918F911F909F
:1034E0001FBE1F9018958091C102843031F10E9457
:1034F0009A0210928E0288E190E020E40FB6F894D0
:10350000A895809360000FBE2093600083B7817FF1
:10351000846083BF83B7816083BF7894889583B7C5
:103520008E7F83BF0FB6F894A89580916000886164
:1035300080936000109260000FBE08950E941406F0
:103540000E949F02089582E084BD93E095BD9AEFAA
:1035500097BD80936E0008952FB7F8948091B902BB
:103560009091BA02A091BB02B091BC022FBF089506
:103570002FB7F8946091B9027091BA028091BB02A2
:103580009091BC022FBF08959C014FB7F894809191
:10359000B9029091BA02A091BB02B091BC024FBF98
:1035A000821B930B0895CF92DF92EF92FF922FB779
:1035B000F894C090B902D090BA02E090BB02F090AB
:1035C000BC022FBFA7019601261B370B480B590BD6
:1035D000CA01B901FF90EF90DF90CF9008957894E1
:1035E0001F921FB61F9211248F939F93AF93BF9387
:1035F0008091B9029091BA02A091BB02B091BC0235
:103600000196A11DB11D8093B9029093BA02A093B7
:10361000BB02B093BC02BF91AF919F918F911F905D
:103620001FBE1F90189587E797E790930108809336
:10363000000888E19AE00FB6F894A895809360009E
:103640000FBE90936000FFCF88E19AE00FB6F89428
:10365000A895809360000FBE90936000FFCF8EE12D
:10366000489B02C08150E1F7489BFECF08955898CF
:1036700080E28A95F1F7589A0895FC013BE03A956B
:10368000F1F798E020E080E031E040E14A95F1F781
:10369000880F489B02C08160232742E04A95F1F7DA
:1036A000000040E14A95F1F7915079F790E19A9541
:1036B000F1F799B132E03A95F1F7000040E14A950F
:1036C000F1F7917092272081920F90830895A1E0E5
:1036D000B0E0EDE6FBE10C94A62319828C017C019D
:1036E000E60EF11C0E151F0541F481E09981911140
:1036F00080E02196E6E00C94C2230E942F1BCE01AD
:1037000001960E943D1BF80181938F01EBCF509AE7
:10371000589A08955098589AE89AE9E6F0E080811E
:103720008C7F808308956150770B91E001C0990FE1
:103730006A95EAF720E031E0911108C0222391F068
:10374000589A80E28A95F1F758980895492F4823AE
:1037500039F0589A232740E24A95F1F79695ECCF35
:103760005898F9CF5898EDCFFF920F931F93CF93AE
:10377000DF93EC018C01060F111DC017D10729F44E
:10378000CDB7DEB7E5E00C94C323F9900E94371B58
:1037900068E08F2D0E94931BF0CF1F920F920FB6FF
:1037A0000F9211240F931F932F933F934F935F9387
:1037B0006F937F938F939F93AF93BF93EF93FF93F9
:1037C000CF93DF930F92CDB7DEB719820E942F1BE4
:1037D000CE0101960E943D1B082F06950695069581
:1037E000282F22952570902F9570290F922F937076
:1037F00026952695920F982797708981982B09F026
:103800005CC0043008F059C080E18A95F1F7589AFD
:10381000509A82E08A95F1F700C0589888E0089F96
:1038200080011124D801AD5FBE4F1696ED91FC9139
:1038300017973097A9F06091AC017091AD01149683
:103840002D913C911597260F371F11968D919C91C4
:103850001297680F791F13964C9113978C910995C5
:10386000F801ED5FFE4F6381662351F02091AC01BA
:103870003091AD0184819581820F931F0E94B41B0A
:103880000E94371B80E18A95F1F758985098589A12
:1038900080E18A95F1F7F801ED5FFE4F60816623C4
:1038A00051F02091AC013091AD0181819281820F64
:1038B000931F0E94671B0E942F1B0F90DF91CF91D7
:1038C000FF91EF91BF91AF919F918F917F916F91F8
:1038D0005F914F913F912F911F910F910F900FBECC
:1038E0000F901F9018950F931F93CF93DF93EC01C8
:1038F00004970CF04CC0F894509A589885E08A953B
:10390000F1F700009C2F969595708C2F8570980F7D
:10391000892F83709695969523E0CC0FDD1F2A950D
:10392000E1F7980F8E01092B0E94371B00C068E059
:10393000802F0E94931B80E18A95F1F75098589A46
:10394000489B1EC087E090E048991CC0FE01ED5FD7
:10395000FE4F63816623F9F02091AC013091AD01F7
:1039600084819581820F931F0E94671B811113C070
:10397000509A589A7894DF91CF911F910F910895A2
:1039800000C0DECF019729F4509A589A789480E0CD
:10399000F2CF00C0D9CF0E942F1B80E28A95F1F7A9
:1039A0005898509A80E18A95F1F7CD5FDE4F688193
:1039B000662351F02091AC013091AD0189819A814B
:1039C000820F931F0E94B41B0E94371B789481E0E2
:1039D000D2CF80919702089508959B01BA019091EA
:1039E000C1029430E9F48F708093E9009FEF8091D9
:1039F000E800915085FD06C085ED8A95F1F700003D
:103A00009111F5CF8091E80085FF0AC050E040E0B9
:103A1000C9010E94E71E8091E8008E778093E8003C
:103A2000089543E050E0BC0182E00E94ED1C08953F
:103A300046E050E0BC0182E00E94ED1C0895CF9367
:103A4000DF93EC0148E050E0BC0181E00E94ED1CF6
:103A500088E0FE01AFE8B2E001900D928A95E1F7AF
:103A6000DF91CF9108958091C002811109C00E9419
:103A700077200E94D4208091E20084608093E2004D
:103A800008951092C00208950E941E1A0895609130
:103A9000BD0281E0611101C080E00E94151A089505
:103AA0009091C10281E0943009F080E06091BD0204
:103AB0000E941B1A089542E061EC81E00E94F31F0E
:103AC00042E261EC82E00E94F31F9091C10281E02A
:103AD000943009F080E06091BD020E940B1A0895B5
:103AE0008091C302833009F461C030F48130D1F198
:103AF000823009F49EC008958A3009F48AC08B3060
:103B000009F46FC0893009F050C08091C20281323F
:103B100009F04BC08091C6029091C702029708F04D
:103B200044C08091E800877F8093E8008091E8009E
:103B300082FF37C09091F3008091F200029731F438
:103B40008091F100813011F0863021F48091F100F4
:103B5000809397028091E8008B778093E8000E9421
:103B6000272023C08091C202813AF9F48091E800B5
:103B7000877F8093E8008091C6029091C702892BCD
:103B800061F468E08FE892E070E00E94361F809157
:103B9000E8008B778093E800089560E090E080E093
:103BA000F3CF8091C1028111C1CF08958091C202EB
:103BB000813AD9F78091C6029091C702892BA9F763
:103BC0008091E800877F8093E8008091E80080FF83
:103BD000FCCF80912D018093F1008091E8008E77D9
:103BE000BCCF8091C202813201F78091C6029091D0
:103BF000C702892BD1F68091E800877F8093E80087
:103C00000E9427208091C40280932D010E941406F7
:103C100008958091C202813241F68091E800877F49
:103C20008093E8000E9427208091C502809398022B
:103C300008958091C202813A09F0B7CF8091E800DF
:103C4000877F8093E8008091E80080FFFCCF80911F
:103C50009802C1CF84B7877F84BF0FB6F894A89528
:103C600080916000886180936000109260000FBEB8
:103C700080E890E00FB6F894809361009093610023
:103C80000FBE0E94241A08950E9477200E94D4201B
:103C9000E2EEF0E080818460808378940E94532378
:103CA000089583E291E00E94F31808958091C10283
:103CB000853031F48091C102853019F00E949E1A3E
:103CC00008950E94731A0E94311A882399F38091F3
:103CD000BF02882379F30E94D11E0E941406EACF06
:103CE00008959A014091C8025091C9020E94791E1C
:103CF0000895492F55274330510519F168F4413093
:103D0000510509F444C04230510509F445C090E022
:103D100080E050E040E025C04132510549F1423297
:103D20005105A9F784E490E04EEB52E0611571056E
:103D3000C1F08BE790E043E452E06130710589F017
:103D4000E6CF99278130910581F0009729F00297FD
:103D5000F1F6ECECF1E002C0E2EFF1E0849190E0EA
:103D6000AF01F901518340830895E2EEF1E0F6CF0F
:103D700089E090E048E052E06115710591F389E037
:103D800090E041E252E06130710559F3C0CF82E129
:103D900090E041E352E0E5CF8BE390E046EF51E065
:103DA000E0CF80E189BD82E189BD09B400FEFDCF8D
:103DB0008091D8008F7D8093D8008091E000826050
:103DC0008093E0008091E00081FDFCCF0895AF92E8
:103DD000BF92CF92DF92FF920F931F93CF93DF9307
:103DE0006C01EB018A010E944620F82E811123C04C
:103DF0000115110539F0F80180819181C81BD90B9B
:103E0000C80ED91EB12CA12C2097A9F08091E800F2
:103E100085FD22C08091E8008E778093E80001152F
:103E20001105A1F0F80180819181A80EB91EB1821F
:103E3000A08285E0F82E8F2DDF91CF911F910F91F9
:103E4000FF90DF90CF90BF90AF9008950E944620E2
:103E50008823D1F2F82EEFCFF60181916F01809384
:103E6000F1002197FFEFAF1ABF0ACECFFC0180917E
:103E7000C8029091C90286179707A0F061157105D5
:103E800029F49091E8009E779093E80090E0611506
:103E9000710551F4911108C08091E80082FF34C08F
:103EA00080E00895BC01F2CF8091C1028823C1F166
:103EB0008530C1F18091E80083FD30C08091E80039
:103EC00082FDEACF8091E80080FFE1CF8091F3008E
:103ED0002091F200382F6115710519F02830310555
:103EE00058F091E02830310509F090E02091E80089
:103EF0002E772093E800CBCF81918093F100615021
:103F000071092F5F3F4FE7CF8091C102882341F0B5
:103F1000853041F08091E80083FFBECF81E00895B5
:103F200082E0089583E00895FC018091C802909199
:103F3000C90286179707A0F06115710529F48091D1
:103F4000E8008E778093E80090E06115710551F4E8
:103F5000911108C08091E80082FF35C080E008958B
:103F6000BC01F2CF8091C1028823C9F18530C9F12B
:103F70008091E80083FD31C08091E80082FDEACFA6
:103F80008091E80080FFE1CF8091F3002091F20062
:103F9000382F6115710519F02830310558F091E07E
:103FA0002830310509F090E08091E8008E77809309
:103FB000E800CBCF84918093F10031966150710974
:103FC0002F5F3F4FE6CF8091C102882341F08530BB
:103FD00041F08091E80083FFBDCF81E0089582E049
:103FE000089583E00895982F973028F08F7080937C
:103FF000E90081E008959093E900242F762F50E0A6
:10400000981731F07091EC002091ED005091F00084
:1040100021FD02C09F5FE8CF3091EB003E7F3093DF
:10402000EB003091ED003D7F3093ED003091EB00DF
:1040300031603093EB007093EC002093ED005093CF
:10404000F0002091EE0027FDE5CF80E008958091FB
:10405000C20287FF13C08091E80082FF06C08091F2
:10406000E8008B778093E80004C08091C102811141
:10407000F2CF08958091C1028823D9F38091E8009E
:1040800080FFF8CF8091E8008E77ECCF2091E4009C
:104090003091E50095E6A9012091EC00822F817016
:1040A00020FF06C08091E80080FF06C080E00895F0
:1040B0002091E80022FD1AC08091C102882389F076
:1040C000853089F08091EB0085FD0FC02091E400E0
:1040D0003091E50042175307F9F29150E1F684E080
:1040E000089582E0089583E0089581E008950E9494
:1040F000E6200E94EE20E0EEF0E080818160808387
:10410000E8EDF0E080818F77808319BCA7EDB0E007
:104110008C918E7F8C9380818F7E80831092C002E1
:1041200008950F931F93CF93DF930E94E6200E9480
:10413000EE20C8EDD0E088818F7788838881806801
:10414000888388818F7D888319BC1092C102109268
:10415000BD021092BF021092BE0200EE10E0F80104
:1041600080818B7F808388818160888342E060E0EA
:1041700080E00E94F31FE1EEF0E080818E7F80837B
:10418000E2EEF0E0808181608083808188608083BE
:10419000F80180818E7F8083888180618883DF91B0
:1041A000CF911F910F910895E8EDF0E080818F7E0F
:1041B0008083E7EDF0E080818160808384E082BFCE
:1041C00081E08093C0020E9491200895E8EDF0E024
:1041D00080818E7F80831092E20008951092DA0031
:1041E0001092E10008951F920F920FB60F921124C2
:1041F0002F933F934F935F936F937F938F939F93EF
:10420000AF93BF93EF93FF938091E10082FF0BC0C8
:104210008091E20082FF07C08091E1008B7F809354
:10422000E1000E9452238091DA0080FF19C0809142
:10423000D80080FF15C08091DA008E7F8093DA006D
:104240008091D90080FF96C080E189BD82E189BD5F
:1042500009B400FEFDCF81E08093C1020E94331DAE
:104260008091E10080FF19C08091E20080FF15C0BD
:104270008091E2008E7F8093E2008091E200806175
:104280008093E2008091D80080628093D80019BCAE
:1042900085E08093C1020E94471D8091E10084FF68
:1042A0002BC08091E20084FF27C080E189BD82E1BC
:1042B00089BD89B5982F917080FFFBCF8091D80080
:1042C0008F7D8093D8008091E1008F7E8093E10004
:1042D0008091E2008F7E8093E2008091E200816015
:1042E0008093E2008091BD02882309F449C084E0F4
:1042F0008093C1020E94501D8091E10083FF29C07C
:104300008091E20083FF25C08091E100877F809348
:10431000E10082E08093C1021092BD028091E10031
:104320008E7F8093E1008091E2008E7F8093E20097
:104330008091E20080618093E20042E060E080E0F2
:104340000E94F31F8091F00088608093F0000E942B
:10435000441DFF91EF91BF91AF919F918F917F91FC
:104360006F915F914F913F912F910F900FBE0F90E2
:104370001F90189519BC1092C1020E94411D70CF68
:104380008091E30087FD93E09093C102B3CF1F9229
:104390000F920FB60F9211242F933F934F935F9379
:1043A0006F937F938F939F93AF93BF93CF93DF933D
:1043B000EF93FF93D091E900DF708091EC00C82F5C
:1043C000C17080FDC0E81092E9008091F000877F05
:1043D0008093F00078940E940B221092E900809163
:1043E000F00088608093F000CD2BCF70C093E9007F
:1043F000FF91EF91DF91CF91BF91AF919F918F91FD
:104400007F916F915F914F913F912F910F900FBED0
:104410000F901F901895AAE2B0E0E1E1F2E20C944F
:10442000A92382EC92E02091F100FC012193CF01BD
:10443000F2E08A3C9F07B9F70E94701D8091E80066
:1044400083FF1EC18091C2029091C3029A3008F08E
:1044500017C1E92FF0E0EC57FB4D0C949423803802
:1044600099F0823809F00CC18091C6028F708730B4
:1044700008F006C18093E9008091EB0085FB882756
:1044800080F91092E90006C08091BE029091BF02AF
:10449000911182609091E800977F9093E80080935B
:1044A000F1001092F1008091E8008E77E5C088233A
:1044B00009F4D3C0823009F0E3C08091C4028111B5
:1044C000D6C08091C6028F702FEF280F263008F0DB
:1044D000D7C08093E9002091EB0020FFC8C0933043
:1044E00031F48091EB0080628093EB00C0C090912A
:1044F000EB0090619093EB0021E030E001C0220FCF
:104500008A95EAF72093EA001092EA008091EB0086
:104510008860EACF8111B4C01091C4021F778091E6
:10452000E3008078812B8093E3008091E800877F0F
:104530008093E8000E9427208091E80080FFFCCF54
:104540008091E30080688093E30082E0111183E0B2
:104550008093C10295C08058823008F091C080914C
:10456000C4029091C5028C3D23E09207A1F583E03F
:104570008A838AE289834FB7F894DE01139620E09C
:104580003EE051E2E32FF0E050935700E49120FF2A
:1045900003C0E295EF703F5FEF708E2F90E0EA303E
:1045A000C0F0C7968D939D932F5F243159F74FBF6D
:1045B0008091E800877F8093E8006AE270E0CE0196
:1045C00001960E94361F8091E8008B778093E80067
:1045D00057C0C096E7CF6091C6027091C702AE0186
:1045E0004F5F5F4F0E94711EBC01892B09F448C0C8
:1045F0009091E800977F9093E80089819A810E94CA
:10460000941FE1CF8038E1F58091E800877F8093A7
:10461000E8008091BD028093F10045CF811130C048
:104620009091C402923060F58091E800877F80937A
:10463000E8009093BD020E9427208091BD0288234C
:1046400011F084E005C08091E30087FDFACF81E09E
:104650008093C1020E945B1D13C08091C40281300F
:1046600079F481E0933009F080E08093BF021092EA
:10467000E9008091E800877F8093E8000E9427206E
:104680008091E80083FF0AC08091E800877F8093D3
:10469000E8008091EB0080628093EB00AA96E3E053
:1046A0000C94C5230895CF938091C1028823A1F073
:1046B000C091E900CF709091EC00892F817090FD3E
:1046C00080E8C82B1092E9008091E80083FD0E94E9
:1046D0000B22CF70C093E900CF9108950E947720FC
:1046E0001092C1020895E8EDF0E08081806180833E
:1046F0008AE18A95F1F700C08091D9008170089510
:1047000097FB072E16F4009407D077FD09D00E947E
:10471000D12307FC05D03EF4909581959F4F0895D5
:10472000709561957F4F0895EE0FFF1F0590F491EE
:10473000E02D09942F923F924F925F926F927F9259
:104740008F929F92AF92BF92CF92DF92EF92FF92A1
:104750000F931F93CF93DF93CDB7DEB7CA1BDB0B4D
:104760000FB6F894DEBF0FBECDBF09942A883988F2
:1047700048885F846E847D848C849B84AA84B984F9
:10478000C884DF80EE80FD800C811B81AA81B98105
:10479000CE0FD11D0FB6F894DEBF0FBECDBFED0119
:1047A0000895AA1BBB1B51E107C0AA1FBB1FA61778
:1047B000B70710F0A61BB70B881F991F5A95A9F7CA
:1047C00080959095BC01CD010895FB01DC0104C0EA
:1047D0008D910190801921F441505040C8F7881BF9
:1047E000990B0895FB01DC0102C001900D9241502C
:1047F0005040D8F70895F999FECF92BD81BDF89A3F
:10480000992780B50895A8E1B0E042E050E00C940B
:104810003F24DC01A40FB51F4150504048F0CB01AC
:10482000840F951F2E910E941A2441505040D0F7BA
:104830000895262FF999FECF92BD81BDF89A019770
:1048400000B4021639F01FBA20BD0FB6F894FA9AD8
:10485000F99A0FBE08950396272F0E941A240E94EA
:104860001924252F0E941A24242F0C941A2401960F
:10487000272F0E941A240C941924DC01CB01FC017F
:10488000F999FECF06C0F2BDE1BDF89A319600B4A9
:104890000D9241505040B8F70895F894FFCF10049E
:1048A000100460046004C504E1043F043F04E6040E
:1048B0005705660566054315B7154B1515151915EA
:1048C0004F151D1553155F152915B0152D156315B9
:1048D000311567158F1535156B1596153B15711527
:1048E00079152115571525155B153F157515851576
:1048F0009F15AE150F154715BE15CC18D218BB184D
:10490000C618D818DE18E4182F2257224023572241
:0C49100040238A22AB22402302230E2306
:10491C002A02010000000100000000000000060156
:10492C000000000407000000000000280850011ED1
:10493C000A1401E91C1F1DEC1C181D111D01E200BD
:10494C00E900EA00B500B600B700CD008301CC0049
:10495C008A019201940121022302240225022602DB
:10496C0027022A02B300B4006F0070009F01CB0134
:10497C009F02A002818283E200E900EA00B500B642
:10498C0000B700CD008301CC008A01920194012173
:10499C0002230224022502260227022A02B300B4B3
:1049AC00006F0070009F01CB019F02A002818283E7
:0E49BC00946697C63435F6F73133323654021E
:00000001FF
